:020000040800F2
:1000000000000120F1850008ED850008EB8500085F
:10001000EB850008EB850008EB8500080000000078
:10002000000000000000000000000000ED85000856
:10003000ED85000800000000ED850008C1040008FF
:10004000EB850008EB850008EB850008EB850008D0
:10005000EB850008EB850008EB850008EB850008C0
:10006000EB850008EB850008EB850008EB850008B0
:10007000EB850008EB850008EB850008EB850008A0
:10008000EB850008EB850008EB850008EB85000890
:10009000EB850008EB850008EB850008EB85000880
:1000A000EB850008EB850008EB850008EB85000870
:1000B000EB850008EB850008EB850008EB85000860
:1000C000EB850008EB850008EB850008EB85000850
:1000D000EB850008EB850008EB850008EB85000840
:1000E000EB850008EB850008EB850008EB85000830
:1000F000EB850008EB850008EB850008EB85000820
:10010000EB850008EB850008EB850008EB8500080F
:10011000EB850008EB850008EB850008EB850008FF
:10012000EB850008EB850008EB850008EB850008EF
:10013000EB850008EB850008EB850008EB850008DF
:10014000EB850008EB850008EB850008EB850008CF
:100150001FB507F0A3FE40F20E3007F059FF4FF431
:10016000407007F055FF40F2023007F051FF40F2B7
:10017000033007F04DFF4FF4417007F049FF40F2A4
:100180008E2007F045FF4FF4247007F041FF40F246
:100190008F2007F03DFF082007F02AFC022007F01F
:1001A000A3FB022007F098FB0B2007F065FF00235C
:1001B000554C194620680222406801F0D9F9002305
:1001C000206819460222806801F0D2F900232068D5
:1001D00019460222C06801F0CBF900F041F900F0A5
:1001E000B7F800F00FF9494801F0A8F900F0B2F9AA
:1001F0004FF48071464807F057FA4FF400714448B5
:1002000007F052FA4FF48061414807F04DFA4FF47D
:10021000FA70002100F044F94FF480713C4807F077
:1002200045FA4FF400713A4807F040FA4FF4806104
:10023000374807F03BFA00F02DF906F019FD0022CF
:10024000344B06F075FE02460B46334801F02EF99A
:1002500000F020F906F00CFD00222E4B06F068FE9F
:1002600002460B462D4801F021F908F0A9FA00F0EA
:1002700011F906F0FDFC0022264B06F059FE02465D
:100280000B46274801F012F9264927480FF09DFE3A
:10029000264927480FF099FE264927480FF095FE7A
:1002A000264B27480293274B254C019300230093AC
:1002B000204B1A1FA3F1080108F030FE204808F077
:1002C000BDFE1F4808F0C0FE00F0E4F806F0D0FCC8
:1002D0000022104B06F02CFE02460B461A4801F095
:1002E000E5F800F0D7F806F0C3FC0022094B06F051
:1002F0001FFE02460B46154801F0D8F821460020A3
:1003000000F078F9FAE700BF0000002018080108A3
:100310000008014000408F403B08010864080108C4
:1003200091080108C8090020AB080108CC09002089
:10033000B5080108D0090020C3080108D50101084B
:100340008C13002089050008CD080108EE0801087B
:1003500070B5284D284C284640230222032107F07F
:1003600059F9284680230222002107F053F920463C
:100370004FF480730022022107F04CF920464FF41D
:1003800000730022022107F045F920464FF48063F4
:100390000022022107F03EF9204604230222032115
:1003A00007F038F90223154E1A463046032107F0AC
:1003B00031F9204602230122002107F02BF92846BB
:1003C0004FF460530222032107F024F93046302312
:1003D0000122002107F01EF920460021802301227E
:1003E00007F018F9BDE870404FF00070044907F0BD
:1003F00049B900BF000C0140000801400010014055
:100400000400800010B50F4C4FF4E131204607F096
:1004100065FE2046082107F075FE2046002107F002
:1004200080FE2046002107F076FE20460C2107F0D2
:100430007EFE2046002107F080FE2046BDE81040E9
:1004400007F081BE0038014038B505464C1E14F84F
:10045000011F01B938BD284607F07FFEF7E700BF4E
:1004600008B5042008F024F90022084B1A60084B54
:1004700018684FF47A73B0FBF3F0013808F000F914
:1004800008F03EF9BDE8084008F04AB918E000E07D
:10049000AC090020014BD3E900017047D8090020C6
:1004A000064BF0B5D3E90045261845EB0107D3E923
:1004B0000001B94208BFB042F9D3F0BDD80900200D
:1004C00030B50449D1E90023541C43F10005C1E9CA
:1004D000004530BDD809002001380128F8B5144680
:1004E00009D80F4F4E1EC1F10105AB199C4209DC22
:1004F00024EAE47005E000F0F7F8052303604FF00C
:10050000FF30F8BD73780A2B03D10D21384607F070
:1005100024FE384616F8011F07F01FFEE5E700BF6E
:1005200000380140F8B50E460C460025084F2CB99E
:100530002946074807F0E8FE2046F8BD6289616851
:10054000781900F0D9FE638934681D44EFE700BFD5
:10055000E009002007B540F20E5007F076FD0021BB
:10056000084607F079FF4FF4C0630022CDE900325E
:1005700002220448114607F063FE03B05DF804EB65
:1005800007F04EBFCC13002010B5044650B9292205
:10059000134B1449144800F089FF204600F066F917
:1005A00000F09AF846F66563C386104B2E3040F88B
:1005B0001A3C0F4B40F8163C4FF4004303806FF099
:1005C0007E43C0F802300623837107F02FFE40F20D
:1005D000DC53A3850A2384F83530002010BD00BF0A
:1005E00018090108AB2B01082809010889F0000847
:1005F000250500082DE9FF410446C0B20E4607F06C
:10060000DFFF2F4B93F8D0279846824214D083F80F
:10061000D007002844D0304608F06AFDFFF73AFFC3
:1006200006F026FB0022274B06F082FC0B46024612
:100630002548009400F03AFF00254FF4FA62204864
:1006400003A9039507F08AFE38B34FF4C172284618
:10065000BDF80C1008F0C0FE0446F0B107467A89D8
:10066000786808EB050100F047FE7B893F681D4470
:10067000002FF4D16368988908F0B1F8B0F5006FE5
:1006800003D040F60603984204D131462046336930
:10069000984710B1204608F04FFE04B0BDE8F08145
:1006A000304608F03FFDFFF7F5FE06F0E1FA0022C4
:1006B000044B06F03DFC009402460B460348B9E7A4
:1006C000E009002000408F4050090108740901082A
:1006D00008B5FFF7DFFE08BD08B5062001F07EF87B
:1006E000012006F095FF00BF014B1868704700BF5E
:1006F00000000020B1F90C302DE9F0419AB20C460F
:100700001107804648D4626843F40063002AA3813D
:100710005EDDA56A002D58D000229BB2D8F800609B
:10072000E169C8F8002013F4805255D101234046F6
:10073000A847431C67D0A389A56AE1695F0705D56F
:100740006268236B801A0BB1E36BC01A0246002368
:100750004046A847451C49D1D8F80020B4F90C30D0
:10076000002A5DD01D2A01D0162A3AD10021226923
:1007700023F40063C4E90021A381216BC8F8006061
:1007800019B304F14003994202D0404600F0CAF97F
:1007900000202063BDE8F0812669B6B1910718BF3B
:1007A0000023256808BF63692660AD1BA3600AE0CB
:1007B0002B463246676AE1694046B8470028A5EBF8
:1007C000000506440ADD002DF2DC0020BDE8F081C2
:1007D000E26B002A9DDCF8E7206DAFE74FF0FF30B9
:1007E000A38943F04003A381BDE8F0810021B4F95F
:1007F0000C30226923F40063C4E90021DA04A381E8
:10080000BBD52065B9E7D8F80030002B93D01D2B5D
:100810000FD0162B0DD0A38943F04003A381D5E759
:1008200023F400632169A381DB04C4E90012A4D589
:10083000E7E7C8F80060C8E710B5044682B008B121
:10084000836B23B1B1F90C0048B902B010BD01911E
:1008500000F0F8F80199B1F90C000028F5D0204615
:1008600002B0BDE81040FFF745BF00BF20B1054B07
:1008700001461868FFF7E0BF034B0449186800F011
:100880006FBA00BF000000209C0901083908000869
:1008900000207047014900F063BA00BF1140000812
:1008A0002DE9F84F07460024042303217D682A48D8
:1008B00007F53B72C7E9B912F863C7F8E04205F1E2
:1008C0005C00EB606C66C5E90044AC60C5E90444BB
:1008D000AC612146082200F085FDDFF888B0BE68D3
:1008E000DFF884A0DFF88490DFF884801B4BC5E933
:1008F000075BC5E909A9C5F82C802146F3600822E9
:1009000006F15C007466C6E90044B460C6E90444BC
:10091000B46100F067FDFD68114BC6E9076BC6E9DD
:1009200009A9C6F82C802146EB606C66C5E9004435
:10093000AC60C5E90444AC6105F15C00082200F03C
:1009400051FD0123C5E9075BC5E909A9C5F82C805C
:10095000BB63BDE8F88F00BF9508000809000100DF
:10096000120002004D18000875180008B51800089C
:10097000D51800080020704770B568254A1E05FB91
:1009800002F50E4605F1740100F012FA044640B17A
:1009900000210C30666005F168022160A06000F063
:1009A00021FD204670BD00BF1F4B70B51D68064677
:1009B000AB6B4BB305F53875D5E90134013B05D573
:1009C0001EE0013B5A1C04F1680419D0B4F90C2054
:1009D000002AF6D10025154B6566C4E90055A560CF
:1009E000C4E90455A5612946E360082204F15C00CE
:1009F00000F0F8FCC4E90C55C4E91155204670BD5F
:100A00002C682CB12546D7E72846FFF749FFD1E7E8
:100A100004213046FFF7B0FF044628600028F1D1DA
:100A20000C233360EAE700BF9C0901080100FFFFC7
:100A3000024B0349186800F093B900BF9C090108F4
:100A400011400008836B03B1704729E7704700BF6E
:100A5000704700BF704700BF704700BF024B03499B
:100A6000186800F059B900BF000000209108000884
:100A7000024B0349186800F04FB900BF0000002086
:100A800075090008F8B50C46234F064600F0FAFC3D
:100A9000BB68C4F57E615D680F3125F0030529440C
:100AA00021F47F6121F00F01A1F58054B4F5805F3E
:100AB00007DB0021304600F049FDBB682B4498421B
:100AC00004D0304600F0E0FC0020F8BD6142304622
:100AD00000F03CFD01300DD0104BBA6819682D1B99
:100AE00045F001053046091B5560196000F0CCFC4B
:100AF0000120F8BD0021304600F028FDBA68831AB5
:100B00000F2BDEDD064943F001030C680349001B8F
:100B100053600860D5E700BF30040020B811002002
:100B20003808002000295ED0F8B50F46064600F0D0
:100B3000A9FC57F804CC754DA7F108002CF001036F
:100B4000C218A9685468914224F0030400F084801C
:100B50001CF0010F546002EB040133D157F808EC8C
:100B60004968A0EB0E00876805F1080C67457344DF
:100B700001F0010160D0D0F80CE0C7F80CE0CEF82D
:100B80000870002900F08D8043F00101416013607E
:100B9000B3F5007F30D20122DB086C689910134452
:100BA0008A40224305EBC30155F833400839C0E9B8
:100BB00002416A6045F83300E0603046BDE8F84025
:100BC00000F062BC4968C9070ED4234405F1080C43
:100BD000916843F0010461456BD0D268CA609160AE
:100BE0004460C350D4E7704743F00101B3F5007F80
:100BF00047F8041C1360CED35A0A042A46D89A092F
:100C000002F13907FF0002F13801EC19EA59083CFA
:100C1000944255D0516821F00301994202D992685B
:100C20009442F7D1D468C0E90224A060D060304675
:100C3000BDE8F84000F028BC002962D1D2E90221C9
:100C4000234443F00104D1608A604460C3503046BD
:100C5000BDE8F84000F018BC1CF0010F234407D198
:100C600057F8084C001BD0E902122344CA60916077
:100C7000274A43F00101126841609A42A8609CD85B
:100C8000244B30461968FFF7FDFE96E7142A0AD96F
:100C9000542A1DD81A0B02F16F07FF0002F16E01F2
:100CA000B3E7234494E702F15C07FF0002F15B0124
:100CB000ABE7C5E90400C0E902CC4460C3507CE75F
:100CC00001276B68891007FA01F119436960AAE7E7
:100CD000B2F5AA7F06D8DA0B02F17807FF0002F11D
:100CE000770192E740F254518A4206D89A0C02F1F9
:100CF0007D07FF0002F17C0187E74FF47E777E21BC
:100D000083E743F001014160136056E7300400209F
:100D10003C080020B41100202DE9F04110F538778F
:100D20001AD088460026D7E90154013D0ED4A38984
:100D3000013D012B06D9B4F90E30013302D0204613
:100D4000C04706436B1C04F16804F0D13F68002FD4
:100D5000E9D13046BDE8F0813E463046BDE8F0813D
:100D60002DE9F84310F538761ED0884607464FF037
:100D70000009D6E90154013D10D4A389013D012B9E
:100D800008D9B4F90E30013304D021463846C047A3
:100D900049EA00096B1C04F16804EED13668002EA4
:100DA000E7D14846BDE8F883B1464846BDE8F88338
:100DB0002DE9F04F01F10B05162D83B0064623D81F
:100DC000102900F2B68000F05DFB102518230220E8
:100DD000D14F3B445C68A3F10802944200F0B68016
:100DE0006368E16823F0030323445A68A56842F06E
:100DF0000102E96030468D6008345A6000F044FB1F
:100E0000204603B0BDE8F08F35F0070500F1918072
:100E1000A94200F28E8000F035FBB5F5FC7FC0F0F2
:100E200090816B0A00F08C80042B00F26081AB098A
:100E300003F1390003F1380CC100B74F39444C6855
:100E40000839A14206D10CE0002A80F22981E46829
:100E5000A14206D0636823F003035A1B0F2AF3DD77
:100E600060463C69DFF8B4C264457AD0636823F019
:100E700003035A1B0F2A00F37281002AC7E904CC2E
:100E800080F26381B3F5007F80F00E810122DB08E0
:100E9000991013448A40796857F833E007EBC30888
:100EA0000A43A8F10801C4E902E17A6047F8334037
:100EB000CEF80C40012483109C40944257D8144231
:100EC00006D120F003006400144200F10400FAD0BF
:100ED00007EBC009CE468046DEF80C309E4507D1B0
:100EE00011E1002A80F21E81DB689E4500F00B8133
:100EF000596821F003014A1B0F2AF2DD45F0010871
:100F00003046D3E902E41D4442F00106C3F80480F0
:100F1000CEF80C40C4F808E0C7E90455C5E902CC96
:100F20006E605A50009300F0AFFA009B03F1080482
:100F300002E00C2300243360204603B0BDE8F08FAC
:100F40004FF4007140204FF03F0C76E7DC68A3427D
:100F500008BF02307FF444AF3C69DFF8C0C164458C
:100F600084D101247A6883109C409442A7D9BC683C
:100F7000636823F00308A84503D3A8EB05030F2BF0
:100F80007EDCDFF89C91D7F80824D9F800300132D4
:100F900004EB080A2B4400F02D8103F580530F3336
:100FA00023F47F6B2BF00F0B5946304600F0CEFA3E
:100FB000411C024600F0ED80824500F2E880D9F83D
:100FC00004105944C9F804100B4600F04981D7F8C1
:100FD000081401311BBFA2EB0A0A5344C7F80824C6
:100FE000C9F8043012F0070300F01081C3F10801C2
:100FF0000A44C3F5805193440831A1EB0B01C1F3BE
:101000000B0A514630460193009200F09FFA421CB1
:10101000DDE9002300F04981831A03EB0A0BD9F8BC
:1010200004104BF001035144BC42BA60C9F80410EB
:10103000536000F02181B8F10F0F40F21F814FF093
:10104000050C6368A8F10C0020F0070003F0010311
:10105000034304EB000E0F286360CEE901CC00F2DD
:101060002B8114465368D9F82C208A42D9F83020B5
:1010700038BFC9F82C108A4238BFC9F830108AE04E
:1010800045F0010243F00103254462603046BD6033
:1010900008346B6000F0F8F9204603B0BDE8F08F2B
:1010A00023445A68E168A1E65A0A042A69D9142A35
:1010B00000F2BE8002F15C01C9005B3207EB010E59
:1010C0007958AEF1080E8E4500F097804A6822F0FC
:1010D00003029A4202D989688E45F7D1D1F80CE013
:1010E0007A68C4E9021ECEF80840CC60E2E6142B10
:1010F0005FD9542B00F2A4802B0B03F16F0003F196
:101100006E0CC10099E608F1010818F0030F0EF10A
:10111000080E7FF4E1AE57E03004002038040020D0
:10112000B41100201C4619444A68DB6854F8085F73
:1011300042F001024A603046EB609D6000F0A4F985
:10114000FAE6E80805F1080342E623445A68304607
:1011500042F001025A60083400F096F9ECE645F0DE
:10116000010E42F001012544C4F804E03046C7E90D
:101170000455C5E902CC6960E25000F085F90834F5
:10118000DAE69A0902F13901C900383296E7BC4221
:1011900060D0BC68636823F0030BAB45ABEB050381
:1011A00002D30F2B3FF76CAF304600F06DF90024EF
:1011B000C2E603F15C0003F15B0CC1003DE659F8A7
:1011C00008394B4540F0968010F0030F00F1FF30D6
:1011D000F5D17B6823EA04037B6064009C423FF600
:1011E000C6AE1CB9C3E6640008F104081C42FAD07C
:1011F00040466DE603F1100BD6E64FF001087B6820
:10120000921008FA02F21A437A606AE702EB0B01C5
:101210004942C1F30B0A514630460193009200F057
:1012200095F9431CDDE900237FF4F6AE9A46F6E615
:10123000542A26D81A0B02F16F01C9006E323DE71D
:10124000B3F5AA7F26D8EB0B03F1780003F1770CF6
:10125000C100F2E5D9F804305B44C9F80430B6E6C1
:10126000CAF30B0000287FF4B2AE08EB0B03BC6896
:1012700043F001036360F6E61446F4E6012353608D
:1012800092E7B2F5AA7F21D8DA0B02F17801C90002
:10129000773213E740F25452934221D8AB0C03F15A
:1012A0007D0003F17C0CC100C7E5083B9B44ABEB20
:1012B000020B4FF0000AB2E604F108013046FFF7D6
:1012C00031FCBC68D9F804106368CCE640F2545194
:1012D0008A420BD89A0C02F17D01C9007C32EDE6FE
:1012E0004FF47E717F204FF07E0CA6E54FF47E71A7
:1012F0007E22E3E67B6870E7844641EA000313F050
:10130000030349D1403A23D30B6803604B68436021
:101310008B688360CB68C3600B6903614B69436171
:101320008B698361CB69C3610B6A03624B6A436259
:101330008B6A8362CB6AC3620B6B03634B6B436341
:101340008B6B8363CB6BC36340304031403ADBD25D
:1013500030320BD30B6803604B6843608B6883604B
:10136000CB68C36010301031103AF3D20C3205D381
:1013700051F8043B40F8043B043AF9D2043208D057
:10138000D2071CBF11F8013B00F8013B01D30B88C9
:1013900003806046704700BF082A13D38B07B1D083
:1013A00010F00303AED0C3F10403D21ADB071CBF55
:1013B00011F8013B00F8013BA4D331F8023B20F8BF
:1013C000023B9FE7043AD9D3013A11F8013B00F8F8
:1013D000013BF9D20B7803704B7843708B788370A4
:1013E00060467047F0B4860746D0541E002A3CD0B1
:1013F000CAB2034602E014F1FF3436D303F8012BDE
:101400009D07F8D1032C29D9CDB245EA05250F2C2B
:1014100045EA054533D9A4F11006360903F1200742
:1014200007EB061703F1100242E9045542E90255A1
:101430001032BA42F8D1721C14F00C0F03EB0212F6
:1014400004F00F0613D0331F23F0030304331344B7
:1014500042F8045B9342FBD106F003042CB1C9B2FD
:101460001C4403F8011B9C42FBD1F0BC704734467E
:101470001346002CF3D1F8E714460346C2E71A4698
:101480002646E0E7704700BF704700BF0EB410B5B6
:1014900083B005AC54F8042B81682346019400F016
:1014A0004BFA03B0BDE8104003B070470FB410B55D
:1014B000074B82B004AC54F8042B186823468168AB
:1014C000019400F039FA02B0BDE8104004B0704752
:1014D0000000002070B5054688B008460C4600F0B4
:1014E000FDF9012202261449AB6B059007921044C6
:1014F00004AA04940390AC68029606910192B3B1D9
:10150000B4F90C309A0406D4626E43F4005322F40A
:101510000052A38162662146284601AA02F0C4FD5A
:10152000002814BF4FF0FF300A2008B070BD2846D5
:10153000FFF788FAE4E700BFA0090108024B014663
:101540001868FFF7C7BF00BF0000002038B50023B0
:10155000064C05460846236006F04CF8431C00D0B4
:1015600038BD2368002BFBD02B6038BDCC2B00206E
:101570002DE9F043524D83B02D6804460F46904646
:101580001E4615B1AB6B002B65D0B8F1020F06D02B
:10159000B8F1010F00F29180002EC0F28E8021463A
:1015A0002846FFF749F9216B41B104F14003994204
:1015B00002D02846FFF7B6FA002323630022B4F9CD
:1015C0000C30A26162601A064DD423F44A6323F002
:1015D0000303B8F1020FA3814CD001AB6A46214648
:1015E000284602F001FFA3891843A08116B317B360
:1015F000AB6B63B3009BB4F90C00B3421CBF40F467
:101600000060A081B8F1010F08BF40F0010083B273
:1016100008BFA08113F008002760C4E904761ED03B
:1016200013F0010035D000207642A661A06003B01F
:10163000BDE8F083009E304602F04EFF074660B3DF
:10164000A38943F08003A381AB6B002BD2D1284642
:10165000FFF7F8F9CEE72846FFF7F4F995E7A06021
:1016600003B0BDE8F08321692846FFF75BFAB4F9BF
:101670000C30AAE700200025012104F1430243F0C9
:101680000203A381A56061612260226103B0BDE80D
:10169000F083A66003B0BDE8F083DDF80090B145AB
:1016A00006D0484602F018FF074608B14E46C7E785
:1016B000B4F90C304FF0FF30DDE74FF0FF30CFE7EB
:1016C0000000002010B580210446FFF771FBC4F82C
:1016D000DC0240B10022031F7C3043F8042F834218
:1016E000FBD1002010BD4FF0FF3010BDD0F8DC3230
:1016F0000BB100207047E5E71F2970B5054609D8F2
:10170000D0F8DC3216460C464BB153F8240043F8AF
:10171000246070BD16224FF0FF302A6070BDFFF7C5
:10172000D1FF10B9D5F8DC32EFE74FF0FF3070BDD4
:101730001F2938B5054621D8D0F8DC220C466AB1FD
:1017400052F8213053B1012B16D0591C10D000256E
:10175000204642F824509847284638BD284600F0D5
:1017600073F8224601462846BDE8384000F058B8D4
:10177000162301202B6038BD002038BD16234FF002
:10178000FF302B6038BD00BF1F2923D838B5D0F8F3
:10179000DC3205460C4683B153F8242003EB840366
:1017A0004AB1511C11D0012A0DD0002520461D60E0
:1017B0009047284638BD012038BDFFF783FF30B978
:1017C000D5F8DC32E8E7032038BD022038BD4FF001
:1017D000FF3038BD4FF0FF30704700BF024B01466D
:1017E0001868FFF7A5BF00BF00000020024B0A46A3
:1017F00001461868FFF780BF00000020034B1868FF
:10180000D0F8DC320BB1002070475BE7000000200D
:10181000024B01461868FFF7B7BF00BF0000002069
:1018200070B50D460023074C064611462846236036
:1018300005F0C8FE431C00D070BD2368002BFBD010
:10184000336070BDCC2B002005F0ACBE10B50C464B
:10185000B1F90E1003F0BAFB002803DB236D03443B
:10186000236510BDA38923F48053A38110BD00BF5D
:10187000002070472DE9F041B1F90C409846E3058E
:101880000D461746B1F90E10064609D424F48054CB
:10189000AC8143463A463046BDE8F04101F024BBF6
:1018A0000223002202F08AFDB5F90C40B5F90E10B2
:1018B000ECE700BF10B50C46B1F90E1002F07EFD4A
:1018C000A389421C0EBF23F4805343F48053206548
:1018D000A38110BDB1F90E1001F082BB20F003010D
:1018E00010F00300C0F1000051F8043B00F1040CBB
:1018F0004FEACC0C6FF000021CBF22FA0CF213432B
:101900004FF0010C4CEA0C2C4CEA0C4CA3EB0C02F3
:1019100022EA030212EACC1204BF51F8043B04305D
:10192000F4D0C2F1000102EA0102B2FA82F2C2F17D
:101930001F0200EBD20070472DE9F04FBFB01C46EC
:101940000891914605460C9002F030FD03680D9415
:1019500018461593FFF7C2FF13901DB1AB6B002B18
:1019600000F056830899B1F90C20084693B29E0402
:1019700007D4496E42F4005321F40051838141663B
:101980009BB21D0740F1CF80089A1269002A00F02F
:10199000CA8003F01A030A2B00F0D3800023002131
:1019A0000022CDE92233CDE910120DF1B80A1293CD
:1019B000149316930993CDF884A099F80030002B66
:1019C00000F0DB80252B00F0B4864D4603E0252B8C
:1019D00000F0C58025466B786C1C002BF7D1B4EB6A
:1019E000090600F0CA80DDE9223201333244072BB8
:1019F000CAE90096CDE9223200F3B6800AF1080A5E
:101A0000099A6B7832440992002B00F0B6800023CB
:101A10004FF0FF361A4619469B4667788DF86730B7
:101A20000A9304F1010909F10109A7F12003582BD8
:101A300000F2F282DFE813F0CA02F002F002D202F2
:101A4000F002F002F002F002F002F0022002AC021A
:101A5000F002A702B102F002C000B100B100B10073
:101A6000B100B100B100B100B100B100F002F0026C
:101A7000F002F002F002F002F002F002F002F002D6
:101A80008D024E02F0024E02F002F002F002F0026D
:101A90004502F002F0026800F002F002F002F002EB
:101AA000F0025900F002F0022D02F002F002F00202
:101AB000F002F002F002F002F002F002F002A701E0
:101AC0006D014E024E024E0268016D01F002F002FD
:101AD0005B01F00245016A0015011001F002E60009
:101AE000F0025B00F002F002C5004BF0100B1BF09F
:101AF000200F00F082820D9C073424F00703F3E8E6
:101B000002450D930123BCE04BF0100B1BF02003AA
:101B100000F069820D9C073424F00703F3E80245C6
:101B20000D930023ADE008990C9801F0F3F900281B
:101B300041F02381089B9B8903F01A030A2B7FF451
:101B40002DAF089BB3F90E30002BFFF627AF2346CD
:101B50004A4608990C9801F091F9099019E0B4EB04
:101B600009063FF454AF3EE721AA08990C9803F008
:101B70008FFC48B90DF1B80A42E7239B23B10C98BA
:101B800021AA089903F084FC089B9B895A0601F15D
:101B9000F48009983FB0BDE8F08F0020A7F1300332
:101BA00019F8017B00EB800003EB4000A7F1300344
:101BB000092BF5D90A9038E74BF0800B99F80070A3
:101BC00031E7002A41F0BD80C04B1BF0200F149379
:101BD00000F068810D9C073424F00703F3E8024508
:101BE0000D931BF0010F00F0288254EA050300F06A
:101BF000248230238DF869708DF868304BF0020B29
:101C000002233EE000250D9C8DF8675054F8043BFC
:101C10000E93002B00F07D86711C00F04F8732463A
:101C200029460E9802F068FC002801F06C802E46D0
:101C30000E9BC31A0B939DF8678023EAE3730D9400
:101C4000CDF818B007930F96B8F1000F00F0AD80F3
:101C5000079B01330793A8E04BF0200B99F8007025
:101C6000E1E647F630030D9CADF8683054F8042BDC
:101C7000964B0D94149314460025022378274BF0BD
:101C8000020B002290468DF86720721C00F0D9816B
:101C90002BF08002069254EA050240F0D081002E1B
:101CA00040F01584002B40F0DB841BF001030B9304
:101CB00000F0488530238DF8B7300DF1B7030E934F
:101CC00059E0002A41F051800D9A1BF0200F52F884
:101CD000043B0D9240F03A851BF0100F40F0528605
:101CE0001BF0400F00F04E86099A1A8065E699F8BD
:101CF00000706C2F03BF99F801704BF0200B09F1B5
:101D000001094BF0100B8EE64BF0400B99F8007078
:101D100089E6002A41F019801BF0200F00F0228193
:101D20000D9C073424F007031946F1E802231446FA
:101D30001D460D91002A73F10003C0F2ED84731C5F
:101D40009DF8678008D02BF08003069354EA0503C2
:101D500000F08384DDF818B0002D08BF0A2C80F055
:101D60005384012330340B930DF1B7038DF8B74042
:101D7000CDF818B00E930B9BB342B8BF3346079310
:101D800000230F9360E7012100220D9C079154F876
:101D9000043B8DF867208DF8903024AB0D940B91A7
:101DA0000E930026CDF818B00F96069B13F0020391
:101DB00002D0079A02320792069A239C12F0840BF3
:101DC00005D10A9A0799551A002D00F3B5829DF89E
:101DD000672072B10120229A044402440DF1670188
:101DE000072ACDE92224CAE9001000F31D830AF175
:101DF000080A6BB10221229B0C4401331AAA072B5B
:101E0000CDE92234CAE9002100F31C830AF1080A53
:101E1000BBF1800F00F09B810B9BF61A002E00F3A4
:101E2000E081069BDB0500F13981229B0B9A01338F
:101E30000E991444072B2394CAE90012229300F34D
:101E4000E7820AF1080A069B590705D50A9B079AFB
:101E50009D1A002D00F30283DDE9093207998A42B9
:101E6000ACBF9B185B180993002C40F0FF81002346
:101E70000DF1B80A2293A0E50D9B99F8007053F874
:101E8000040B00280A900D93BFF6CDAD43420A9390
:101E90007BE0002A40F061870D4B1BF0200F14936C
:101EA0007FF498AE0D9B1BF0100F53F8044B0D936D
:101EB00040F03C841BF0400F00F03884A4B20025B1
:101EC0008FE64BF0080B99F80070ACE5E8090108C3
:101ED000D4090108002A40F044870D9C073424F0FF
:101EE0000703F3E8021214460D930B46CDE91034B4
:101EF00022F000440D4608464FF0FF322146C04B09
:101F000005F086F9002840F03084284621464FF03D
:101F1000FF32BB4B05F05EF9002840F02684DDE976
:101F200010010022002305F04BF9002840F03F8605
:101F30009DF8678003210026B24AB34B0791472FD3
:101F4000C8BF1A462BF0800006900B910F960E9298
:101F50007AE6002A40F0FD864BF0100B1BF0200FB4
:101F60007FF4DEAE0D9B1BF0100F53F8044B0D9366
:101F700040F0CA831BF0400F00F0C68324B2E5177F
:101F800022462B46D6E699F800704BF0040B4AE542
:101F900099F8007001222B2145E5484610F8017B95
:101FA0002A2F00F04B87A7F13003092B81464FF011
:101FB00000063FF63AAD19F8017B06EB860603EB07
:101FC0004606A7F13003092BF5D92EE599F80070E4
:101FD00000297FF428AD0122202124E54BF0010BDC
:101FE00099F800701FE50D9A52F8044B0D921BF002
:101FF000100200F05D84002543E60D9B1BF0100FDE
:1020000053F8044B0D9300F0A8830025012338E614
:102010000C98FEF717FDA5E4002A40F0F285002F8A
:102020003FF4ABAD002301228DF8673024AB07925B
:102030008DF890700B920E93B3E6022321E6DDF843
:1020400018B0012B3FF488AE022B00F048822EA975
:1020500000E01146E20842EA4572E80804F007038E
:1020600005461446303354EA050001F8013C01F1FD
:10207000FF32EED11BF0010F0E9200F0E782302B01
:1020800000F0788430230E9A023902F8013C2EAB1E
:102090005B1ACDF818B00B930E916CE6652F40F3E8
:1020A000EE80DDE910010022002305F07FF8002812
:1020B00000F02E820121229B544A0B440C44072B32
:1020C00023942293CAE9002100F3A6840AF1080AA6
:1020D0001B9B129A239C934280F22E83229B139A7D
:1020E000013315991444072BCAE90012CDE92234B3
:1020F00000F302840AF1080A129B5D1E002D7FF78F
:10210000A2AE102D229A40F37B841026DFF800B196
:102110000C9FDDF8208005E00AF1080A103D102D23
:1021200040F3708401321034072ACDE92224CAE931
:1021300000B6F1DD21AA4146384603F0A9F900288E
:102140007FF422ADDDE922240DF1B80AE6E70A9B0F
:10215000079A9D1A002D7FF75FAE102D229A40F34B
:102160000886DFF8ACB0534658462146CA46BB46FF
:10217000B1464FF010080C9C089E074604E0103D45
:10218000102D03F1080315DD01321031072ACDE9C6
:102190002221C3E90078F2DD21AA3146204603F06E
:1021A00077F900287FF4F0ACDDE92221103D102DF5
:1021B0002EABE9DC4E46D1469A463B460C465F467E
:1021C0009B4601322C44072ACDE92224CAE900B5F6
:1021D00000F32E840B9B0AF1080AF61A002E7FF7F3
:1021E00020AE102E229A40F3D184DFF824B023468B
:1021F00059461025BB46DDF83080089C0F460EE09E
:10220000FFFFEF7FC4090108C8090108040A01089B
:10221000B4090108103E102E0AF1080A16DD013239
:102220001033072ACDE92223CAE90075F2DD21AA7D
:102230002146404603F02CF900287FF4A5ACDDE9E7
:102240002223103E102E0DF1B80AE8DC1C463B4656
:102250005F469B4601323444072ACDE92224CAE96D
:1022600000B600F344820AF1080ADAE521AA0899C7
:102270000C9803F00DF900283FF4F9AD84E4129AAC
:10228000229B012A04F1010403F101050AF1080669
:1022900040F3F08101230E9A072DCAF80020CDE902
:1022A0002254CAF8043000F38183139B0135159A38
:1022B0001C44072DCDE92254C6E9002300F36A83AC
:1022C00008366B1C1F46DDE91001B846129F0B93C0
:1022D0000022002306F1080A013F04F067FF0028EE
:1022E00040F0DC810E9B3C440133B8F1070F3360B2
:1022F00023947760CDF8888000F3EE8206F1100316
:1023000056469A4605F10208169A1DAB1444B8F1D8
:10231000070F23947260CDF8888033607FF793AD08
:1023200021AA08990C9803F0B3F800287FF42CAC8C
:102330000DF1B80A239C86E5102D229A2CDD51461A
:102340002046CA464FF01008B14617932E460C9C03
:10235000089D04E0103E102E01F1080116DD013247
:10236000C24B1030072ACDE92220C1E90038F1DD47
:1023700021AA2946204603F08BF800287FF404ACFC
:10238000DDE92220103E102E2EA9E8DC3546044659
:102390004E46D1468A46179B0132B4492C44072A3F
:1023A000CDE92224CAE9001500F31B830AF1080ACB
:1023B0000DE521AA08990C9803F06AF800287FF42B
:1023C000E3AB1B9B239C0DF1B80A002B40F03D832F
:1023D000069B129A03F0010313433FF434AD229A93
:1023E000139B013215991C44072A2394CAE9001350
:1023F000229200F31A840AF1080A129B01320E9904
:102400001C44072ACDE92224CAE900137FF719AD3D
:1024100021AA08990C9803F03BF800287FF4B4AB8C
:10242000239C0DF1B80A0EE521AA08990C98179380
:1024300003F02EF800287FF4A7AB0DF1B80A239C17
:10244000179BD6E421AA08990C9803F021F80028DC
:102450007FF49AAB0DF1B80A239CD9E4102D229B8E
:1024600021DD10260C9FDDF8208004E0103D102DAA
:102470000AF1080A17DD01337C4A1034072BCDE935
:102480002234CAE90026F1DD21AA4146384602F08D
:10249000FFFF00287FF478ABDDE92234103D102DDA
:1024A0000DF1B80AE7DC0133704A2C44072BCDE963
:1024B0002234CAE900257FF7CFAC21AA08990C98ED
:1024C00002F0E6FF00287FF45FAB239CC4E4012BFD
:1024D00000F0C583022BDDF818B07FF4B8ADDDF84D
:1024E00050C02EAA230943EA0573280904F00F01FE
:1024F00005461C461CF8013002F8013D54EA05036C
:10250000F0D12EAB9B1A0E92CDF818B00B9332E49B
:102510001B9B002B40F35682129B0F9A9342A8BF3D
:102520001346002B1D460CDD229B0E9A01332C44D2
:10253000072B2394CAE90025229300F3C7830AF1ED
:10254000080A0F9B002DA8BF5B1B002B1D4600F344
:10255000EB811B9A129B9A4280F2B281229B1399C3
:10256000013315980C44072B2394CAE900012293E8
:1025700000F33A830AF1080A0F99129B9142A3EBE8
:10258000020380F203821D46002D10DDDDE90E10EE
:10259000229A014401322C44072ACAF800102394DD
:1025A000CAF80450229200F39D830AF1080A002D14
:1025B000B4BF1D465D1B002D7FF745AC102D229A40
:1025C00040F31E821026DFF8A8B00C9FDDF82080B3
:1025D00005E00AF1080A103D102D40F31382013284
:1025E0001034072ACDE92224CAE900B6F1DD21AA78
:1025F0004146384602F04CFF00287FF4C5AADDE9C9
:1026000022240DF1B80AE6E72EABCDF81890C146AA
:10261000B0461E4601E004460D460A22002320462D
:10262000294604F033FE303206F8012D00230A2239
:102630002046294604F02AFE002D08BF0A2CEAD2C3
:1026400032460E964646C846DDF818902EAB9B1AC9
:10265000CDF818B00B93FFF78EBB002E40F0FF8231
:1026600000262EAB0E930B96FFF785BBA40901083D
:10267000B4090108069AD0073FF50CAE01220E9965
:10268000072DCAF80010CDE92254CAF8042000F33F
:10269000948203F102080AF1100A35E6002F7FF751
:1026A00033AE102F40F3C38323464FF01008DFF8FA
:1026B00050B4DDF830A0089C0B9D05E00836103FB3
:1026C000102F40F3028201351033072DCDE922533C
:1026D000C6E900B8F2DD21AA2146504602F0D8FE34
:1026E00000287FF451AADDE922532EAEE7E721AAA4
:1026F00008990C9802F0CCFE00287FF445AA0DF151
:10270000B80A239CFFF78DBBE51722462B46002A0B
:1027100073F10003BFF613AB4FF02D08644265EB75
:1027200045058DF867800123FFF7AFBA0025FFF755
:1027300058BA4C46FFF76BB9069BDE073FF5CEACA7
:10274000FFF781BB2EAB0E93FFF715BB099A10461E
:10275000D117C3E90001FFF730B91BF0400F18BFD4
:10276000A4B200250123FFF78CBADDE9100102466F
:102770000B4604F04DFD002840F02E8327F0200387
:10278000741C079300F0BD82472B00F04A82DDE9FC
:1027900010124BF48073151E0693C0F21F820023A3
:1027A000DDF840801793662F00F0AC81462F00F0D3
:1027B000A981079B4246452B4FF002002B4600F0B3
:1027C00052821FA9CDE9000604911CA81BA9CDE9DE
:1027D00002100C9800F0AEFC672F0E90344640F0CB
:1027E0004F821BF0010F40F04E821B9A1F9B0F92ED
:1027F0000E9A9B1A1293079B472B06D10F9BD81C4E
:1028000002DB9E4280F25382023F0F9B8DF8747070
:102810005A1E002AA8BF2B231B92BCBFC3F1010282
:102820002D23092A8DF8753040F3AC820DF1830415
:102830002046B04D01E008461A4685FB0231D31709
:10284000C3EBA10303EB8301A2EB41013031632A07
:1028500000F8011C00F1FF31EDDC3033821EDBB2E9
:10286000944201F8013C40F2E6820DF1760201E06B
:1028700011F8013B8C4202F8013BF9D10DF18503BF
:102880000DF176021B1A13441DAA9B1A1693129A75
:10289000169B012A13440B9340F395820B9B139ACA
:1028A00013440B9323EAE373079300230F9363E12D
:1028B0001BF040031CBF1346A4B20025FFF7E1B98B
:1028C000069BDD073FF54AAE0F99129B8A42A3EBA8
:1028D00002035BDD1D466AE621AA08990C9802F006
:1028E000D7FD00287FF450A9DDE922340DF1C00A9C
:1028F00003F101082EAE07E521AA08990C9802F011
:10290000C7FD00287FF440A90DF1B80A239CFFF70A
:10291000F3BB062E334628BF06230B930793764B53
:102920000D940E93FFF73DBA102B229A40F332819B
:102930001026DFF8CCB10C9FDDF8208005E00AF10D
:10294000080A103D102D40F3278101321034072A68
:10295000CDE92224CAE900B6F1DD21AA4146384674
:1029600002F096FD00287FF40FA9DDE922240DF185
:10297000B80AE6E70E9A2EAB9B1ACDF818B00B9367
:10298000FFF7F9B9099A1A60FFF717B8129A0F9969
:10299000551AF9E521AA08990C9802F079FD00284A
:1029A0007FF4F2A8DDE922542EAE8AE421AA089928
:1029B0000C9802F06DFD00287FF4E6A8DDE92254B2
:1029C0002EAE72E40120229A4C4902440444072AA4
:1029D000CDE92224CAE900103FF7EBAC0AF1080A5E
:1029E000F3E421AA08990C98179302F051FD0028EE
:1029F0007FF4CAA80DF1B80A239C179BFFF7E7B92B
:102A0000DFF8FCB001322C44072ACDE92224CAE9C0
:102A100000B57FF716AAFBE421AA08990C9802F0EA
:102A200037FD00287FF4B0A80DF1B80AFFF750BBBE
:102A300021AA08990C9802F02BFD00287FF4A4A885
:102A40000DF1B80A239CFFF7E7B9229A13990132D6
:102A500015980C44072A2394CAE90001229200F336
:102A6000E4800AF1080A002BBFF6C7AC5D421033C0
:102A700080F2EF81DFF888B010265F46DDF8208015
:102A8000DDF830B005E00AF1080A103D102D40F3E2
:102A9000828101321034072ACDE92224CAE9007666
:102AA000F1DD21AA4146584602F0F2FC00287FF4ED
:102AB0006BA8DDE922240DF1B80AE6E70E98FEF7CF
:102AC0000DFF2E460346FFF7B5B81C4605F1010879
:102AD00006F108023C44B8F1070F2394C6E900B799
:102AE000CDF888803FF7F8AE08F1010802F1080A36
:102AF000164609E467666666FC090108040A0108CF
:102B0000B409010803201FA9CDE9000604911CA8FF
:102B10001BA92B46CDE9021042460C9800F00AFB97
:102B20000E900E9B84191B78302B6ED01B9B1C447F
:102B3000404629460022002304F038FB002800F01C
:102B4000A58023460E9A9B1A12931B9B0F93079BFB
:102B5000472B3FF453AE662F7FF457AE0F9A0BF01E
:102B60000103002A43EA060340F35481002B40F09E
:102B70004C810F9B07930B93179B002B00F09280C7
:102B80002D2300268DF86730FFF762B8DFF8D0B24A
:102B9000FFF760BBDFF8C8B201322C44072ACDE949
:102BA0002224CAE900B54EDC0AF1080AD1E42D233B
:102BB00098468DF86730FFF7BDB921AA08990C989F
:102BC00002F066FC00287EF4DFAFDDE922342EAE91
:102BD00003F101080DF1C00AFFF796BB2D238846CB
:102BE00002F100451793DEE521AA08990C9802F03E
:102BF0004FFC00287EF4C8AF0DF1B80A1B9A239C45
:102C0000BAE48DF86710FFF70ABA40462946002259
:102C1000002304F0CBFA002888D1C6F101031B93EE
:102C200085E7002E08BF0126B1E521AA08990C9876
:102C300002F02EFC00287EF4A7AFDDE922240DF17E
:102C4000B80A1B9B0FE721AA08990C9802F020FCF8
:102C500000287EF499AF0DF1B80A239C79E4DDF8E1
:102C600018B0FFF77EB81FA9009004911CA81BA9FB
:102C7000741CCDE9021001940C9800F05BFA0E90E0
:102C8000472F3FF4AEAD0E9B1C4451E71F9BA34260
:102C9000BFF458AF30215A1C1F9219701F9B9C42E1
:102CA000F9D84FE7179E9DF86780FEF7CDBF129BBE
:102CB00019460F9B994231DC1BF0010F40F09C80BC
:102CC00023EAE37207920B93672755E721AA089935
:102CD0000C9802F0DDFB00287EF456AF0DF1B80A27
:102CE000239C2EE421AA08990C9802F0D1FB00281D
:102CF0007EF44AAF1B9B129A239CD31A0DF1B80A9B
:102D000055E4062643E507960B960D940646CDF846
:102D100018B00F909DF86780FEF796BFDDE912327C
:102D200013440F9A0B93002A06DC0F9B0B9AC3F1F6
:102D300001031A4413460B9223EAE37307936727B0
:102D40001AE78DF86710FEF73FBF8DF86710FEF7A2
:102D5000E3BF8DF86710FFF7FFB88DF86710FFF736
:102D60009BB88DF86710FFF7B8B88DF86710FEF7BD
:102D7000ABBFDFF8ECB0FFF724BA4FF0FF33099395
:102D8000FEF707BF30231A448DF8763004238DF800
:102D9000772016937BE5BB4601322C44072ACDE908
:102DA0002224CAE900B57FF726AB21AA08990C981E
:102DB00002F06EFB00287EF4E7AEDDE922240DF17F
:102DC000B80AFFF71ABB1BF001020F927FF466AD41
:102DD00023EAE3730793CFE6119B0321002BB7BFD0
:102DE0002D239DF8678098468DF86730079100265F
:102DF000194A1A4BFFF7A3B80F9B139A672713447E
:102E00000B9323EAE3730793B6E6139BD31833447B
:102E10000B93DDE71BB9012307930B93ACE6139BE0
:102E2000013333440B9323EAE3730793A4E652463A
:102E3000DFF82CB04EE60223169328E50D9B99F897
:102E4000017053F8046B814646EAE6760D93FEF76F
:102E5000EABDDFF80CB09FE7CC090108D0090108F2
:102E6000B409010810B4044C13460A460146206810
:102E700010BCFEF761BD00BF0000002070B50C461D
:102E800000264FF480658989ADF58D6D21F0020132
:102E9000ADF80C100696616EE6891991ADF80E60DA
:102EA000E169666A0791099669461AAE009604962A
:102EB000029505950646FEF73FFD051E07DB3046E9
:102EC0006946FDF7B9FC002818BF4FF0FF35BDF883
:102ED0000C305B0603D5A38943F04003A381284649
:102EE0000DF58D6D70BD00BFF8B50E460025084C80
:102EF000114607461A4630462560FDF7EDFA431C99
:102F000000D0F8BD2368002BFBD03B60F8BD00BFAC
:102F1000CC2B002038B5314B054618680C4608B15B
:102F2000836B0BB3B4F90C2093B2180723D5206937
:102F300060B313F0010207D000226369A2605B4214
:102F4000A36138B1002038BD990758BF6269A260FB
:102F50000028F7D1B4F90C301A06F4D543F0400339
:102F6000A3814FF0FF3038BDFDF76CFDB4F90C20A4
:102F700093B21807DBD4D90628D5580712D4206994
:102F800042F00803A3819BB20028D2D103F420723F
:102F9000B2F5007FCDD02846214601F053FAA3892F
:102FA0002069C6E7216B51B104F14003994204D076
:102FB0002846FDF7B7FDB4F90C2000232363002356
:102FC000206922F02402C4E90003D9E7092342F072
:102FD00040022B604FF0FF30A28138BD000000207E
:102FE00038B50023064C05460846236004F0CAFAAB
:102FF000431C00D038BD2368002BFBD02B6038BDAC
:10300000CC2B0020000000002DE9F04F03690E6971
:1030100083B0B342C0F28980013E01F1140500F192
:10302000140955F8263059F8262001338246B0009D
:10303000009005EB00089A424844B2FBF3F7019078
:103040003CD30022AE461446CC465EF8043BDCF886
:1030500000001FFA83FB07FB0B221B0C4FEA124BED
:1030600007FB03BB93B2E31A82B21FFA8BF413443B
:10307000C4EB104404EB23449BB243EA0443F04501
:103080004CF8043B4FEA24444FEA1B42DDD2009B3C
:1030900059F8033093B9019A131F99450CD252F88D
:1030A000043C4BB9A2F1080302E01A68043B1AB9C8
:1030B000994506F1FF36F8D3CAF81060504601F082
:1030C0005FFD00282DDB48460023013755F8041B1F
:1030D00004688AB29A1A0B0CA1B20A44C3EB1443D7
:1030E00003EB224392B242EA0342A84540F8042B84
:1030F0004FEA2343EAD259F8262009EB860382B926
:103100001A1F91450BD253F8042C42B9083B02E038
:103110001A68043B1AB9994506F1FF36F8D3CAF884
:103120001060384603B0BDE8F08F002003B0BDE862
:10313000F08F00BF2DE9F04F1F461646036C97B085
:103140000446CDE902674BB10122456C1946AA40FD
:10315000C3E9015201F0A2FA002323643E1EB4BF6A
:1031600001230023239AB8BF26F000461360764B54
:10317000B8BF0396B34300F0AF80DDE902231046E9
:10318000194600220023CDE9080104F00FF8074694
:1031900078B10123229A1360249B002B00F0418315
:1031A0006A4B249A1360013B0493049817B0BDE85E
:1031B000F08F14AA15ABCDE90032DDE9088920466D
:1031C00042464B4601F00AFE350D834640F09A8098
:1031D000DDE91485454405F23243202B40F3F183A9
:1031E000C3F140039E40029B05F2124023FA00F017
:1031F000304303F0F9FC02460120013D0D90A1F19E
:10320000F873104619460022514B03F0AFFB48A358
:10321000D3E9002303F062FD47A3D3E9002303F0C1
:10322000A7FB064628460F4603F0EEFC44A3D3E96D
:10323000002303F053FD02460B463046394603F0A7
:1032400097FB06460F4603F0F9FF00228246002353
:103250003046394603F0B4FF002840F0D582A8EB91
:1032600005056B1EBAF1160F059300F2C282DDE967
:103270000801384B03EBCA03D3E9002303F0A0FF96
:1032800000286DD000230C93059B0AF1FF3A002B18
:10329000C0F2B5824FF00009BAF1000F66DACAF148
:1032A00000030B93209BA9EB0A09092BCDF818A06A
:1032B0004FF0000A63D8052B40F381830025043BBF
:1032C0002093209B023B032B00F27A86DFE813F069
:1032D000A804A5047E04980442F20F73229AC6F350
:1032E00013061360029B334319D1249B002B00F07B
:1032F0007686194B04930833249A0498136017B008
:10330000BDE8F08FC9F3130141F07F534246A5F2A7
:10331000FF350D9743F44013DDF8508071E7249B8F
:10332000002B40F041840D4B04933EE7AFF3008047
:1033300061436F63A787D23FB3C8608B288AC63FBB
:10334000FB799F501344D33F0000F07F050A01082A
:103350000000F83F700A01080C0A0108080A010879
:10336000059B0C90002BC0F24A828146059B53447A
:10337000CDE9053A00230B93209B092B9BD9002311
:103380000125209321934FF0FF330A9507930021E5
:10339000079B61641093204601F05AF904900028BD
:1033A00000F01686049B2364079B0E2B00F23481E9
:1033B000002D00F031810699002940F37384AA4B57
:1033C00001F00F0203EBC2030D11D3E90023CDE995
:1033D0000E23EA0640F13C84DDE90801A34B0327F4
:1033E000D3E9082303F0A4FDCDE9020105F00F05A0
:1033F0007DB1DDE90E019D4EEB0704D5D6E9002332
:1034000003F06CFC01376D1006F10806F4D1CDE92C
:103410000E01DDE90201DDE90E2303F089FDCDE9AE
:1034200002010C9B43B1DDE902010022904B03F045
:10343000C7FE002840F03A85384603F0E5FBDDE999
:10344000022303F04BFC8B4B002203F091FAA1F115
:103450005073CDE90E010F93079B002B00F0BC8049
:10346000069B1293079B1193DDE9026739463046AC
:1034700003F0E4FE054603F0C7FB02460B46304668
:10348000394603F073FA119A774B064603EBC203F1
:103490000F46DDE90E120A98CDE9021253E9022324
:1034A000049930355FFA85F84D1C002800F09084AF
:1034B0000020714903F03CFDDDE9022303F056FAD8
:1034C000049B324683F800803B46CDE9020103F0BD
:1034D00095FE002840F0CB8432463B4600206449EC
:1034E00003F044FA02460B46DDE9020103F086FED2
:1034F000002840F05185119B012B00F08980049A2F
:10350000CDF844901344CDF84CA0CDF838B099468E
:10351000DDE902ABA0460FE032463B4600205449AD
:1035200003F024FA52465B4603F04AFE002840F0BE
:1035300002854D4500F008855046594600224F4B04
:1035400003F0CCFB00224D4B82468B463046394679
:1035500003F0C4FB0F46064603F070FE044603F07A
:1035600053FB02460B463046394603F0FFF9303430
:10357000E4B205F8014B52465B4606460F4603F09F
:103580001FFE0028C8D04446129BDDF838B0013336
:1035900006935946204601F081F800232B70229BA8
:1035A0001A46069B1360249B002B3FF4FEAD049843
:1035B0001D6017B0BDE8F08F384603F025FBDDE94C
:1035C000022303F08BFB2B4B002203F0D1F9A1F176
:1035D0005073CDE90E010F930022DDE90201284B63
:1035E00003F0C4F9DDE90E783A46434605460E4637
:1035F00003F004FE0746002840F0D483DDE90E0105
:10360000024601F100432846314603F0D9FD30BBA4
:10361000DDE90823CDE90223159B002BC0F2C7800A
:10362000069A0E2A00F3C3800F4B03EBC203D3E9C3
:10363000009A219B002B25DA079F002F22DC40F007
:103640006A8400220E4B4846514603F047FBDDE9F1
:10365000022303F0C9FD002800F0A583079F3E4622
:10366000219B049DDB4373E2700A0108600B010893
:103670000000F03F00001C400000E03F000024403C
:1036800000001440DDE902674A4653463046394699
:1036900003F04EFC03F0D2FD804603F0B5FA4A4633
:1036A000534603F01BFB0246304646460B4639465E
:1036B00003F05CF9049D3036069F05F8016B079E08
:1036C0000137012E02460B46069744D00022CA4B12
:1036D00003F004FB0022002306460F4603F066FDBC
:1036E00000287FF456AFCDF808B04FF00108DDF8A0
:1036F0001CB005940CE00022BF4B03F0EFFA00224F
:10370000002306460F4603F051FD002840F0418398
:103710004A4653463046394603F00AFC03F08EFD14
:10372000044603F071FA4A46534603F0D7FA0246BC
:103730000B463046394603F019F908F1010804F147
:103740003006C34502460B4605F8016BD3D1A046AF
:10375000DDF808B0059C1046194603F009F94A4601
:10376000534606460F4603F049FD60B94A465346A4
:103770003046394603F01AFD00283FF40AAF5FEAED
:10378000C8717FF506AF15F8018C6B1E049A04E032
:103790009A4200F0B18313F8018DB8F1390F03F1AB
:1037A0000105F5D008F10102D2B21A70F1E60A9AC9
:1037B000002A3CD0209A012A40F36782079B5F1EB3
:1037C0000B9BBB4280F242820B9B0B97FB1A00279C
:1037D0009A44079B002BC0F2E182059A4D461146A0
:1037E0001944059199440121204601F05BF80646F1
:1037F00020E001230C93059B002BBFF64BAD00236B
:10380000C5F10109059347E5504603F0FDF932463D
:103810003B4603F0CBFC00287FF421AD0AF1FF3AD0
:103820001DE5764B0493049817B0BDE8F08F4D4624
:103830000B9F0A9E002D0BDD059A002A08DDAA4287
:103840001346A8BF2B46A9EB0309ED1AD31A05931B
:103850000B9BD3B10A9B002B00F09F81002F10DD42
:1038600031463A46204601F0D9F85A460146064606
:10387000204601F02DF80346594620469B4600F0AD
:103880000DFF0B9BDA1B40F089810121204601F0DE
:1038900009F8BAF1000F074600F39980209B012B2D
:1038A00040F38781002308930120BAF1000F40F014
:1038B0009A80059A104410F01F0079D0C0F12003BF
:1038C000042B40F36E83C0F11C0002448144054484
:1038D0000592B9F1000F05DD59464A46204601F030
:1038E000E9F88346059B002B05DD39461A4620463C
:1038F00001F0E0F807460C9B002B40F03381079B5A
:10390000002B40F30A810A9B002B40F08680069B27
:1039100001330693049D4FF00108DDF81C9008E088
:10392000594600230A22204600F0C2FE834608F1D1
:10393000010839465846FFF767FBC14500F13000E2
:1039400005F8010BECDC03464FF0000A5946012252
:103950002046029301F0AEF83946834601F010F993
:10396000002815F8012C40F37B816B1E049904E0BC
:10397000994200F0838113F8012D392A03F10105E2
:10398000F6D001321A703946204600F087FE002E2C
:103990003FF4FFADBAF1000F05D0B24503D0514658
:1039A000204600F07BFE3146204600F077FEF0E531
:1039B0001C20059B814403440544059389E70125A8
:1039C0007FE4C3F12006029B03FA06F011E40146EE
:1039D0005246204601F022F8209B0746012B40F377
:1039E0008B81002308933B6907EB8303186900F080
:1039F00009FFC0F120005CE700002440040A010830
:103A0000314600230A22204600F052FE109B064653
:103A1000002B40F3B982CDE90683002D05DD314648
:103A20002A46204601F046F80646089B002B40F047
:103A30009981B1460499029B884603F001024B1E0E
:103A400020990B920A430A92079A1A44089239461F
:103A50005846FFF7D9FA31460290584601F090F8DF
:103A60004A4682463946204601F0A6F8029BC268C3
:103A700005463033002A42D101465846079301F0EB
:103A80007FF829460590204600F008FE059A079B1E
:103A90001AB90A99002900F06082BAF1000F08F102
:103AA0000105C0F24181209941EA0A0A0B9951EAC5
:103AB0000A0100F03981002A00F37781089A88F81A
:103AC0000030424500F07E81594600230A222046FC
:103AD00000F0EEFD4E45834631464FF000034FF0B7
:103AE0000A02204613D000F0E3FD494606460023B3
:103AF0000A22204600F0DCFDA8468146A7E70146E1
:103B00002046059300F0CAFD0122059BC5E700F0A1
:103B1000CFFDA8460646814699E7209B022B40F33D
:103B20008280079B002B7FF49BAD394605222046FF
:103B300000F0BEFD01460746584601F021F8002876
:103B40007FF78EAD3122049D069B05F8012B0133D2
:103B5000013339462046069300F0A0FD002E7FF485
:103B600022AF16E53946584601F00AF80028BFF69C
:103B7000C6AE594600230A22204600F099FD069B56
:103B8000834603F1FF380A9B002B7FF439AF109B6B
:103B9000002B40F3EF810793BCE60B9A5946204671
:103BA00000F03CFF834670E6BA4B04930333FFF703
:103BB000A3BBDDE9021200297FF474AEC2F3130344
:103BC000002B00F0A480029B08936DE601230A936A
:103BD000219B002B3FDD1E46109307930021172EDB
:103BE00061647FF7D8AB012204235B0003F114006A
:103BF000B042114602F10102F7D96164FFF7CBBB75
:103C000001230A93219B069A134410930133012B3D
:103C10001E460793B8BF0126E0E700230A93F1E7A9
:103C200000230A93D4E70A9B002B7FF4F6AE3946B3
:103C30005846FFF7E9F9069A049D00F13003013276
:103C4000069205F8013B4FF0000A7FE6DF1BC0E556
:103C50000227FFF7CDBB012321930793FFF797BB03
:103C600003D1029BDB073FF580AE6B1E01E013F82A
:103C7000012D302A03F10105F9D084E63123069A9B
:103C800001320692049A13707DE60D9A002A00F024
:103C9000F380059A03F233431A444D460592994442
:103CA0000B9FA0E500F0F280DDE90801069B5D4274
:103CB000794B05F00F0203EBC203D3E9002303F0B5
:103CC0000DF82D11CDE9020100F0E080002302275C
:103CD000724EEA0705D5D6E9002302F0FFFF012363
:103CE0001F446D1006F10806F3D1002B3FF499AB89
:103CF000CDE90201FFF795BB029B002B7FF471AE6B
:103D0000DDE90212C2F31303002B40F04F81644B34
:103D10001340002B00F0FD80059B09F101090133E0
:103D2000059301230893BFE50699002A01F10101DB
:103D3000069112DD594601222046059300F0BAFE95
:103D40003946834600F01CFF0028059B40F3ED80B8
:103D5000392B00F0D880029B3133B24688F800300E
:103D60004E4610E67168204600F072FC05460028B9
:103D700000F01F81336906F10C0102339A000C3008
:103D8000FDF7BAFA29460122204600F093FE81464B
:103D900050E6DDF808B0059CFFF7FBBB079BA9EBDD
:103DA000030520E500273E46CCE6069A392B02F1B2
:103DB0000102069200F0A7800133B24688F8003075
:103DC0004E46E0E5069AB246013206924E46BDE501
:103DD000DDE9020102F082FF049BCDE9020183F8D4
:103DE0000080119B012B22D0119B049ACDF83890B2
:103DF0001344994600222B4B3046394602F06EFFA1
:103E00000F46064603F01AFA804602F0FDFE02460F
:103E10000B463046394602F0A9FD08F1300805F896
:103E2000018B4D4506460F46E4D1DDF8389000225F
:103E3000DDE902011C4B02F09BFD32463B4603F0DC
:103E4000BFF900286BD1DDE902230020164902F0FA
:103E50008DFD32463B4603F0D1F900283FF4D8AB44
:103E600000E0154615F8013C6A1E302BF9D0129B74
:103E700001330693FFF78DBB149B059AC3F13603FC
:103E80001A444D46059299440B9FACE40227FFF774
:103E9000C8BA00BF080A0108700A0108600B0108CF
:103EA0000000F07F000024400000E03F079B002B53
:103EB0003FF482AB109D002D7FF7AAABDDE9020134
:103EC00000224E4B02F00AFFCDE90201781C02F0FD
:103ED0009BFEDDE9022302F001FF0022484B02F0C5
:103EE00047FD069AA1F15073013ACDE90E011292F5
:103EF0000F931195FFF7B8BA069A01320692312254
:103F00001A70FFF746BB3922B24688F800204E46A9
:103F10002BE50893C8E400273E46FFF7A1BB129BA0
:103F20000133069315F8018C2FE47FF416AFDA07FE
:103F30007FF513AF0CE74346A0461C46129BDDF805
:103F400038B00133069320E4DDF84490DDF84CA04E
:103F5000DDF838B04446FFF75BBB069A392B02F117
:103F60000102069208F10105CDD0BAF1000F3FF72A
:103F7000F2AEF2E6209B022B02DCCDF8188056E66A
:103F8000109BCDE90683CCE5209B022BF8DC109B2F
:103F9000CDF81880079340E5129B01330693FFF795
:103FA000F4BB3FF496ACC0F13C0002E5029B0893E1
:103FB00019E50246134B40F2EA21134802F0A6F835
:103FC000002520466564294600F042FB049050B964
:103FD0000C4B00224FF4D5710B4802F097F80B4BB5
:103FE0000493FFF7E2B84FF0FF33079310930123D8
:103FF000049A219522640A93FFF70EBB0000244027
:1040000000001C40180A01082C0A01080C0A0108CB
:1040100070B539B105460C4608B1836B83B3B4F96A
:104020000C3013B90026304670BD21462846FCF7F7
:1040300061FBE36A064633B1E169284698470028E8
:10404000B8BF4FF0FF36A3891B0620D4216B41B1C6
:1040500004F14003994202D02846FCF763FD002397
:104060002363616C21B12846FCF75CFD0023636487
:10407000FCF7ECFC0023A381FCF7EAFC304670BDA2
:10408000FCF7E0FCB4F90C30002BCBD0CDE7216974
:104090002846FCF747FDD9E7024B01461868FFF7B1
:1040A000B7BF00BF000000209368002B00F0FC8029
:1040B0002DE9F04FB1F90C300C469BB2190783B0D3
:1040C000824690462BD522694AB313F00202D8F8F3
:1040D000006033D000273D46D4F824B0E169DFF812
:1040E000C492C5B14D452B463A4628BF4B46504673
:1040F000D847002840F3CE80D8F8083007441B1A70
:104100002D1AC8F80830002B00F0B380D4F824B082
:10411000E169002DE6D1D6E900750836E1E72146D0
:104120005046FEF7F7FE002840F03781B4F90C3016
:10413000D8F800609BB213F00202CBD113F0010952
:1041400040F0B4804D46A7682068002D55D09A05F0
:1041500040F1C080AF42BB4600F2EE8013F4906F96
:104160002FD0D4E9041707EB4707A0EB010B07EBAF
:10417000D777681C7F105844B8423A4684BF074638
:104180003A465B0540F1F08011465046FCF710FEC0
:10419000002800F0FC805A4621690190FDF7ACF838
:1041A000A289019B22F4906242F08002A281A7EBD7
:1041B0000B0203EB0B006761AB462F4623612060C7
:1041C000A2605A46494600F0DDF92368A2685B44C4
:1041D000AB460025D71BA7602360D8F80870D944E8
:1041E000A7EB0B07C8F80870002F42D0B4F90C30C9
:1041F000A7689BB22068002DA9D1D6E900950836A2
:10420000A3E70BF1080353F8047C9B4653F8086CB2
:104210000833002FF7D03A460A21304600F06CF9F7
:10422000002854D00130A0EB06094B4620682169D4
:10423000BB4228BF3B468842626903D9A568154442
:10424000AB421ADC9A4200F381801346656A32461B
:10425000E1695046A847051E1CDDB9EB05096ED083
:104260000120D8F808302E445B1B7F1BC8F80830AB
:1042700013BB002003B0BDE8F08F31462A4600F0A2
:1042800081F9236821462B4423605046FCF7D4FA79
:104290000028E2D0B4F90C304FF0FF3043F0400377
:1042A000A38103B0BDE8F08F0020704733469146EC
:1042B000104617464E469B46002FA2D00028B4D188
:1042C0003A460A21304600F017F90028AAD17B1C93
:1042D0009946ABE72369834217D36269AA4214D88F
:1042E0002F4B676A9D4294BF2B466FF0004393FBB0
:1042F000F2F3E16902FB03F350464A46B847B0F1D6
:10430000000BC7DDA5EB0B0567E7AF4228BF2F46C3
:1043100049463A4600F036F9A3682268DB1B3A4466
:10432000BB46A3602260002BECD121465046FCF72F
:1043300083FA0028E6D0ADE72F46AB4641E7214699
:104340005046FCF779FA00288BD0A3E71A4631468D
:104350001D46019300F016F9A1682268019BC91A55
:104360001344A160236078E7504600F045FE034601
:1043700000287FF41CAF21695046FCF7D3FB0C22C8
:10438000B4F90C30CAF8002023F0800384E70C2233
:10439000B4F90C30CAF800207EE74FF0FF3069E72F
:1043A000FEFFFF7F00FCFF7FF03070470048704742
:1043B000300900200048704730090020F8B50E464B
:1043C0000025084C114607461A463046256003F082
:1043D00001F9431C00D0F8BD2368002BFBD03B60E3
:1043E000F8BD00BFCC2B002070B50C46B1F90E1003
:1043F00096B0002915461E4614DB6A4601F080FF80
:1044000000280FDB019A4FF4806302F47042A2F59A
:104410000052B2FA82F24FF40060520932602B600F
:1044200016B070BD0023A289336012F0800004D062
:10443000402218462A6016B070BD4FF480632B608E
:1044400016B070BD8A890B46920706D5012103F18B
:10445000430259611A601A61704770B582B001ABAE
:104460006A460C460646FFF7BFFF009905463046F0
:10447000FCF79EFCB4F90C3070B1164A0099F26357
:10448000019A43F08003A3812060C4E904018AB942
:104490002B43A38102B070BD9A05FBD4012123F008
:1044A000030304F1430243F00203A381616122602C
:1044B0002261EFE73046B4F90E1001F035FF10B974
:1044C000B4F90C30E4E7A38923F0030343F00103BC
:1044D0001BB2DDE795080008024B01461868FCF79F
:1044E00067BC00BF00000020024B01461868FCF7C3
:1044F00019BB00BF00000020830770B4CDB23DD0CF
:10450000541E0AB30378AB421FD0431C05E014F1DC
:10451000FF3419D30278AA4217D013F0030F1846BC
:1045200003F10103F3D1032C11D84CB30378AB4250
:104530000BD00444431C02E00278AA4205D09C42FE
:10454000184603F10103F7D1002070BC7047024602
:104550000E02B6B22E4346EA064613681046734072
:10456000A3F1013121EA030313F0803F02F10402B9
:10457000DCD1043C032C1046EFD8D6E71446D2E732
:104580002046E2E78842F0B40DD98B1883420AD95D
:10459000841832B1224613F8014D994202F8014DB8
:1045A000F9D1F0BC70470F2A0ED80346541E002ADA
:1045B000F7D001340C44013B11F8012BA14203F860
:1045C000012FF9D1F0BC704740EA01039B073AD1B3
:1045D000A2F110073F0901F1200606EB071601F1D1
:1045E000100300F1100453F8105C103344F8105C11
:1045F00053F81C5C103444F81C5C53F8185C44F805
:10460000185C53F8145CB34244F8145CEBD17B1C87
:104610001B0112F00C0F194402F00F05034415D0D2
:104620000E46043DAD0803EB850C1C1F56F8047BB9
:1046300044F8047F6445F9D10135AD002B44294489
:1046400002F00302B2E7541E0346B2E72A46ADE782
:10465000C36C70B505460C464BB153F8240080B1CD
:10466000026843F824200023C0E9033370BD2122EF
:10467000042101F06FFD0346E8640028EDD100201D
:1046800070BD012101FA04F6721D2846920001F066
:1046900061FD0028F3D0C0E90146E4E731B1C36C05
:1046A0004A6853F82200086043F82210704700BFA0
:1046B000F0B54FF0000C0C4605460E6983B001F1D1
:1046C000140738680CF1010C81B202FB0133000CB5
:1046D000190C02FB00109BB203EB0043664547F840
:1046E000043B4FEA1043ECDC3BB1A268B24207DD69
:1046F00004EB8602013653612661204603B0F0BD0B
:104700006168284601310193FFF7A2FF019B07462C
:10471000B8B1226904F10C01023292000C3001930D
:10472000FCF7EAFDEA6C6168019B52F82100206009
:1047300042F821403C4604EB860201365361266173
:10474000DBE70246024BB521024801F0DFFC00BF67
:10475000180A0108880B01082DE9F8431D46264E6A
:10476000083386FB0346092D4FEAE373904607465C
:10477000C3EB66020C46089E36DD012300215B0078
:104780009A4201F10101FADC3846FFF761FF68B394
:104790000123B8F1090FC0E9043613DC4FF0090812
:1047A0000A3445450CDDA5EB0805254414F8013B0A
:1047B0000146303B0A223846FFF77AFFA542F5D181
:1047C000BDE8F88304F109094E46444416F8013B5C
:1047D0000146303B0A223846FFF76AFFB442F5D162
:1047E000A8F108044C44DCE70021CDE70246034B66
:1047F000CE21034801F08AFC398EE338180A0108FB
:10480000880B0108020C12040346CAB903041020E5
:1048100013F07F4F04BF1B02083013F0704F04BF2A
:104820001B01043013F0404F04BF9B000230002BEB
:1048300005DB13F0804F00F1010008BF2020704716
:104840000020E5E70368014613F0070207D0DA0706
:1048500020D4980722D55B080B600120704798B2DE
:10486000B0B910201B0C13F0FF0F04BF1B0A083057
:104870001A0704BF1B0904309A0704BF9B080230C3
:10488000DA0703D45B0800F1010005D00B60704724
:104890001046E8E700207047202070479B080B6017
:1048A0000220704710B50C460121FFF7D1FE0246E9
:1048B00018B10123C0E9043410BD034B4FF4A071BB
:1048C000024801F023FC00BF180A0108880B010808
:1048D0002DE9F04F0E69176983B0BE420C461546AC
:1048E00005DB3A462B4637460D4616461C46AB6856
:1048F000696807EB06084345B8BF0131FFF7A8FE1A
:10490000009000287FD0009B03F1140A0AEB88096D
:10491000CA4505D25346002143F8041B9945FBD8EC
:1049200004F1140E0EEB860B05F11403DE4503EBC8
:10493000870753D2CDF80480984605E0090C28D1AA
:10494000F3450AF1040A47D95EF8041B8EB2002E23
:10495000F4D045465446002355F8041B20688AB21B
:104960001FFA80FC06FB02C2090C000C06FB0101C9
:10497000134401EB13429BB243EA0243AF4244F8B3
:10498000043B4FEA1243E7D823605EF8041C090C8D
:10499000D6D0DAF8003040461A4654464FF0000CA4
:1049A0000588120C01FB05229BB2944443EA0C4398
:1049B00044F8043B50F8043B22681B0C95B201FB01
:1049C0000353874203EB1C434FEA134CE8D8F345EB
:1049D00023600AF1040AB7D8DDF80480B8F1000FAB
:1049E0000BDD59F8043CA9F104091BB105E059F8A5
:1049F000043D13B9B8F10108F9D10098C0F810804E
:104A000003B0BDE8F08F0246024B40F25D11024850
:104A100001F07CFB180A0108880B010812F003035F
:104A20002DE9F041144607462ED10D46A4101CD0A6
:104A3000BE6C96B3E3074FF0000806D4641014D0A0
:104A40003068A8B10646E307F8D53246294638460D
:104A5000FFF73EFFB5B16A68FB6C641053F8221093
:104A6000296043F822500546EAD12846BDE8F08186
:104A7000324631463846FFF72BFF3060C0F80080E1
:104A80000646E0E70546D9E7094A013B52F82320EC
:104A90000023FFF70DFE0546C8E740F271213846B6
:104AA000FFF700FF0023B86406460360C2E700BFBB
:104AB000600A01082DE9F8430E694FEA62198B6814
:104AC0004E44741C9C420D4690460746496804DDDE
:104AD0005B009C4201F10101FADC3846FFF7B8FDAA
:104AE000002842D0B9F1000F00F1140C0EDD63462E
:104AF000002109F105094FEA890900EB090243F891
:104B0000041B9342FBD1A9F11409CC44296905F196
:104B1000140318F01F0803EB810E1DD00022C8F10A
:104B20002009196801FA08F111434CF8041B53F8E5
:104B3000042B734522FA09F2F3D3002A18BF264644
:104B4000CCF80020FB6C6A68066153F822102960DB
:104B500043F82250BDE8F883ACF1040C53F8042B61
:104B60009E454CF8042FF9D8ECE70246024B40F280
:104B7000D911024801F0CAFA180A0108880B010885
:104B800030B40B6905460069C01A10D19B0014357A
:104B9000143119442B4401E09D4208D253F8044DCE
:104BA00051F8042D9442F7D003D24FF0FF3030BCBF
:104BB0007047012030BC70472DE9F04716460F6959
:104BC00012690D46BF1A002F6AD1920001F1140C30
:104BD00006F114010CEB0203114401E09C4562D282
:104BE00053F8042D51F8044DA242F7D053D369680D
:104BF000FFF72EFD002860D0D5F810C033691435BA
:104C000006F11402C76005EB8C0E02EB830800F17D
:104C10001407002100E037463E4655F8049B52F841
:104C2000044B1FFA89F30B441FFA84FA210CA3EBFF
:104C30000A03C1EB194101EB23419BB243EA014353
:104C400090454FEA214146F8043B2C46E3D8AE4557
:104C500016D9324654F8047BBBB20B44191401EB4D
:104C600017419BB243EA0143A64542F8043B4FEA91
:104C70002141EFD80EF1FF377F1B27F003073744A0
:104C80002BB957F8043D0CF1FF3C002BF9D0C0F8CC
:104C900010C0BDE8F0872B46012735461E46A6E723
:104CA000F9DB0027A3E70021FFF7D2FC60B1012266
:104CB0000023C0E90423BDE8F0870246064B4FF409
:104CC0001071064801F022FA0246034B40F23221ED
:104CD000024801F01BFA00BF180A0108880B0108FE
:104CE0000E4B0B40A3F15073002B02DD0020194640
:104CF00070475B421B15132B05DC4FF4002200208C
:104D000042FA03F17047143B1E2BD6BF4FF000420E
:104D1000012322FA03F30021184670470000F07FB8
:104D20002DE9F041076900F1140606EB870757F8F3
:104D3000048C4046FFF766FDC0F120030A280B6093
:104D4000A7F1040230DD9642A0F10B031DD257F803
:104D5000080C23B3C3F1200120FA01F208FA03F88A
:104D600048EA0208A7F1080248F07F55964200FA87
:104D700003F045F4401503D257F80C3CCB401843E0
:104D8000044629462046BDE8F0813BB108FA03F30A
:104D900043F07F5545F440150020F1E7184648F0F0
:104DA0007F5545F44015EBE796422CBF002257F89B
:104DB000082CC0F10B0328FA03F138BFDA4000F1E8
:104DC000150341F07F5508FA03F345F4401543EA13
:104DD000020420462946BDE8F08100BF70B50121DC
:104DE00082B016461C46FFF733FC054600284CD01F
:104DF0002346C4F30A54C3F313030CB143F48013E2
:104E0000002E019322D068460096FFF71BFD002874
:104E100037D0019BC0F12002009903FA02F20A4345
:104E2000C34001936A61002B14BF02210121AB61D1
:104E30002961B4B1069BA4F2334404441C60079B6F
:104E4000C0F135001860284602B070BD01A8FFF718
:104E5000F9FC0123019A19462030C5E90432002CDF
:104E6000E8D1069A05EB8103A0F232401060186980
:104E7000FFF7C8FC079BC0EB41101860284602B042
:104E800070BDDDE900236A61CDE70246024B40F2C6
:104E90000A31024801F03AF9180A0108880B0108A2
:104EA0002DE9F04383B00F4669460646FFF738FF09
:104EB00004460D46384601A9FFF732FF36693A69C4
:104EC0008946DDE90013B61ACB1A03EB4613002B13
:104ED00080460BDD05EB03573D4642464B462046D8
:104EE000294602F025F803B0BDE8F083C3EB033395
:104EF00009EB03518946F0E71728D0B504460ADDCF
:104F0000002000260749084F32463B4601F0E6FEE6
:104F1000013CF9D1D0BD054B03EBC004D4E9040139
:104F2000D0BD00BF0000F03F00002440600A01082F
:104F300070B414694E1E02F11403761103EB840160
:104F400001368B4200EB86060CD2041F53F8045B3B
:104F5000994244F8045FF9D88B1A153B23F00303F8
:104F600004331844864204D9002340F8043B8642A7
:104F7000FBD870BC704700BF03694A11934210B45C
:104F800000F114040FDA04EB83039C421CD253F8A3
:104F9000040C043B18B114E053F8042D8AB99C4268
:104FA000FAD310BC704704EB8203EEDD11F01F0151
:104FB000EBD054F8220020FA01F202FA01F1884203
:104FC000E3D0012010BC70470020EAE7F8B50E4698
:104FD0000025084C114607461A463046256002F067
:104FE00001FB431C00D0F8BD2368002BFBD03B60C5
:104FF000F8BD00BFCC2B00202DE9F84F1746002943
:1050000000F0BB8007F10B0481460D46FCF73AFA2D
:10501000162C5ED810242246A7425FD855F804EC1F
:10502000A5F108082EF00306964208EB060A80F266
:105030008180CA4BDAF804009968514500F0B580C8
:1050400020F0010353445B68DB0700F18A8020F005
:1050500003003318934280F212811EF0010F0FD12A
:1050600055F8083CA8EB030BDBF8041021F0030112
:1050700008448319934280F216817318934234DAFC
:1050800039464846FBF794FE0746E0B155F8043C24
:10509000A0F1080223F001034344934200F0F7809B
:1050A000321F242A00F2FB80132A296800F2C980EB
:1050B00003462A4619605168596092689A602946E9
:1050C0004846FBF72FFD4846FCF7DEF93846BDE8B9
:1050D000F88F24F00704002C22469DDA0C230027C9
:1050E000C9F800303846BDE8F88F5F46DBF80C1091
:1050F00057F8080F321F242AC1600BEB030A88609F
:1051000000F2E280132A296840F2E680CBF808100A
:1051100069681B2ACBF80C10A96800F2EB800BF130
:1051200010020835116069681E465160AB68D846A8
:105130003D469360D8F80420331B0F2B02F0010288
:1051400020D83243C8F80420DAF8043043F00103D1
:10515000CAF804302F464846FCF796F93846BDE8B1
:10516000F88F1EF0010F8BD155F8083CA8EB030B0C
:10517000DBF8041021F003017FE71146BDE8F84F8A
:10518000FBF716BE08EB0401224343F00103C8F805
:1051900004204B60DAF80430083143F00103CAF808
:1051A00004304846FBF7BEFCD4E720F0030031187A
:1051B00004F1100C61454FDA1EF0010F7FF460AF6F
:1051C00055F8081CA8EB010BDBF8041021F00301D3
:1051D000084400EB060AD4453FF74FAF5F46DBF8C3
:1051E0000C1057F8080F321F242AC160886000F2A3
:1051F000A380132A296840F29D80CBF808106968C3
:105200001B2ACBF80C10A96800F29C800BF110024D
:105210000835116069685160A9689160AAEB0402C1
:105220000BEB040142F0010299604A60DBF80430A4
:10523000484603F001031C43CBF80440FCF724F973
:1052400050E701606B681B2A436047D805F10802EC
:1052500000F10803A9682DE70A1B42F0010208EBE0
:10526000040199604A6055F8043C484603F0010384
:105270001C4345F8044CFCF707F92F4632E7DAE9FE
:1052800002121E46CA6008EB030A916052E750F80A
:10529000043C23F003031E4408EB060A4AE72946B0
:1052A000FFF770F90BE75F46DAE90201C160886039
:1052B00057F8080FDBF80C10321F242AC1600BEBE3
:1052C000030A88607FF61EAF294638461E46D84638
:1052D000FFF758F93D462DE73A4623E7AB68242A05
:1052E0008360EB68C36011D005F1100200F1100378
:1052F0002969DFE6CBF81010E968242ACBF81410EE
:1053000029690DD00BF1180210350BE72B6905F157
:1053100018020361696900F118034161A969C9E6CE
:10532000CBF8181069690BF12002CBF81C10A969A1
:105330001835F7E63A466CE729463846FFF722F972
:10534000064B6BE7CBF81010E968242ACBF8141051
:10535000296905D00BF1180210355AE730040020F6
:10536000CBF8181069690BF12002CBF81C10A96961
:1053700018354EE738B50C460968054609B1FFF700
:10538000F9FF21462846BDE83840FBF7CBBB00BFFC
:10539000204B1B6883423BD0C36C70B505468BB174
:1053A0000026995939B10C682846FBF7BBFB21460A
:1053B000002CF8D1EB6C0436802EF2D11946284629
:1053C000FBF7B0FB296C11B12846FBF7ABFBD5F816
:1053D000481151B105F5A676B14206D00C682846B1
:1053E000FBF7A0FBA6422146F8D1696D11B1284612
:1053F000FBF798FBAB6B53B1EB6B28469847D5F89E
:10540000E01221B12846BDE87040FFF7B3BF70BD80
:10541000704700BF000000202DE9F84F4B6E934607
:105420009C042DD59368126843B30E46074602F1DB
:10543000080959E9025A5FEA9A0815D00024043D88
:1054400001E0A0450ED0324655F8041F384600F062
:1054500025FF431C04F10104F3D10023CBE9013300
:10546000BDE8F88FDBF808302AF0030AA3EB0A0343
:10547000CBF8083009F10809002BDAD10020ECE75D
:10548000FEF712FE0023CBE90133BDE8F88F00BF21
:10549000936803B1C0E710B41846536010BC70475E
:1054A0002DE9F04FADB01C4605919046CDE9063090
:1054B00018B1836B002B00F0FB82059BB3F90C1035
:1054C00018468AB2950407D45B6E41F4005223F467
:1054D00000538281436692B2110740F1CA80059B56
:1054E0001B69002B00F0C58002F01A020A2A00F0A6
:1054F000CE8000230DF1700BDA46CDE910330A930C
:105500000393CDF83CB098F80030002B00F0DD801C
:10551000252B00F0FB84454603E0252B00F0C580D9
:1055200025466B786C1C002BF7D1B4EB080600F015
:10553000CC80DDE9103201333244072BCAE9008602
:10554000CDE9103200F3B6800AF1080A039A6B78AD
:1055500032440392002B00F0B88000214FF000038A
:1055600008460F464FF0FF398DF8373063780491C5
:1055700004F1010808F10108A3F12002582A00F201
:105580009A82DFE812F0FB0098029802F600980277
:1055900098029802980298029802E900E4009802A2
:1055A000DF00C6009802C100B200B200B200B20033
:1055B000B200B200B200B200B200980298029802A3
:1055C000980298029802980298029802980227027C
:1055D00098029802980298029802980298029802FB
:1055E000980298026700980298029802980298021E
:1055F00059009802980212029802980298029802A2
:10560000980298029802980298029802860159011D
:105610009802980298025401590198029802470191
:1056200098026A0269003E02420198022201980231
:105630005B0098029802030147F01007BA06069B28
:1056400040F11E82073323F00703F3E80245069377
:105650000123E4E147F0100717F0200300F01E8259
:10566000069B073323F00703F3E802450693002364
:10567000D5E105990798FDF74DFC002840F0EE8430
:10568000059B9A8902F01A020A2A7FF432AF059B21
:10569000B3F90E30002BFFF62CAF23464246059996
:1056A000079800F0FDFC03901BE0B4EB08063FF404
:1056B00054AF3EE7002A00F0F3830FAA059907983C
:1056C000FFF7AAFE40B9DA4640E7119B23B10798DD
:1056D0000FAA0599FFF7A0FE059B9B895B0600F1C9
:1056E000BD8403982DB0BDE8F08F0024A3F13002F3
:1056F00018F8013B04EB840402EB4404A3F13002EC
:10570000092AF5D9049437E747F0800798F8003064
:1057100030E7444614F8013B2A2B00F0A484A3F19F
:105720003002092AA0464FF000093FF625AF18F8CD
:10573000013B09EB890902EB4909A3F13002092A6F
:10574000F5D919E798F8003047F0040712E798F800
:10575000003001212B200DE7069A98F8003052F80E
:10576000044B002C04940692BFF604AF62420492EC
:10577000EAE747F0010798F80030FBE698F80030B8
:1057800000287FF4F7AE01212020F3E6002940F045
:105790005184C04AB8060A92069A40F10F81073236
:1057A00022F00702F2E802450692FE0740F19381DB
:1057B00054EA050200F08F8130228DF8393047F02D
:1057C00002078DF83820022329E14FF00003069CE0
:1057D0008DF8373054F8046B002E00F0FC83B9F1DB
:1057E000FF3F00F0B9834A4600213046FEF784FEB1
:1057F000002800F01084831B02939DF83730069434
:10580000019708934FF00009A8E147F0200798F8A6
:105810000030AFE698F800306C2B03BF98F80130E9
:1058200047F0200708F1010847F01007A2E647F00B
:10583000400798F800309DE6002940F0F583BA064D
:10584000069B40F1D080073323F007031946F1E8A7
:10585000022314461D460691002A73F10003C0F28C
:105860002B839DF83730B9F1FF3F089300F0F382A6
:1058700027F08003019354EA050340F0EB82B9F16D
:10588000000F40F0C6834FF000095E46CDF8089047
:1058900064E101254FF00001069B8DF8371053F8A5
:1058A000042B02958DF84820069312AE4FF00009A4
:1058B0000197019B019C13F00203089318BF023566
:1058C000DDE9101214F0840401F101031846099473
:1058D00004D1049C641B002C00F321829DF8374006
:1058E0000AF1080C7CB101210DF137040A440728A4
:1058F000CDE91002CAE9004100F3F2810146E24617
:1059000001300CF1080C089BD3B102210EAB0A4404
:105910000728CDE91002CAE9003140F3FA81002AD4
:1059200000F0DF820FAA05990798FFF775FD0028A0
:105930007FF4D2AEDDE91012DA46481C0DF1780C86
:10594000099B802B00F01581029BA9EB0307002F18
:1059500000F36F81029B07281A441192CAE9006381
:1059600010900CDD002A00F022820FAA05990798FA
:10597000FFF752FD00287FF4AFAEDC46119A019B81
:10598000590704D5049B5C1B002C00F31982DDE948
:105990000331A942ACBF5B185B190393002A40F0A6
:1059A00091810023DA461093ADE5002940F0498348
:1059B000394AB8060A92069A3FF5F1AE52F8044BFE
:1059C000F906069200F181827A0640F17E82A4B245
:1059D0000025EAE6002940F0378347F01007BA06B1
:1059E000069B3FF530AF53F8044BFE06069300F1DB
:1059F0005B827D0640F1588224B2E51722462B4691
:105A00002AE7069B47F6300253F8044B002506931D
:105A1000204B47F002070A930223ADF838200022FA
:105A200008928DF83720B9F1FF3F57D027F0800258
:105A3000019254EA050250D1B9F1000F74D1002B44
:105A40007FF421AF17F00103029300F0628230234C
:105A50000DF16F068DF86F3080E0002940F0EE8286
:105A6000069ABC0652F8043B069200F16282F806E0
:105A700000F18C82790640F18982039A1A8042E50E
:105A800053F8044BFE06069340F15A820025012389
:105A9000C5E700BFE8090108D4090108069A52F8D1
:105AA000044B069217F0100200F03C820025B6E786
:105AB000FAF7C8FF01E5002940F0A882002B3FF467
:105AC00004AE01258DF848304FF0000302958DF8A3
:105AD000373012AEEAE60223A1E7019F012B00F066
